{"abi":[{"type":"function","name":"MakeMarket","inputs":[{"name":"marketDescription","type":"string","internalType":"string"},{"name":"registrationDelay","type":"uint256","internalType":"uint256"},{"name":"marketLength","type":"uint256","internalType":"uint256"}],"outputs":[],"stateMutability":"nonpayable"},{"type":"function","name":"afterTaskSubmission","inputs":[{"name":"_taskInfo","type":"tuple","internalType":"struct IAttestationCenter.TaskInfo","components":[{"name":"proofOfTask","type":"string","internalType":"string"},{"name":"data","type":"bytes","internalType":"bytes"},{"name":"taskPerformer","type":"address","internalType":"address"},{"name":"taskDefinitionId","type":"uint16","internalType":"uint16"}]},{"name":"_isApproved","type":"bool","internalType":"bool"},{"name":"_tpSignature","type":"bytes","internalType":"bytes"},{"name":"_taSignature","type":"uint256[2]","internalType":"uint256[2]"},{"name":"_operatorIds","type":"uint256[]","internalType":"uint256[]"}],"outputs":[],"stateMutability":"nonpayable"},{"type":"function","name":"beforeTaskSubmission","inputs":[{"name":"_taskInfo","type":"tuple","internalType":"struct IAttestationCenter.TaskInfo","components":[{"name":"proofOfTask","type":"string","internalType":"string"},{"name":"data","type":"bytes","internalType":"bytes"},{"name":"taskPerformer","type":"address","internalType":"address"},{"name":"taskDefinitionId","type":"uint16","internalType":"uint16"}]},{"name":"_isApproved","type":"bool","internalType":"bool"},{"name":"_tpSignature","type":"bytes","internalType":"bytes"},{"name":"_taSignature","type":"uint256[2]","internalType":"uint256[2]"},{"name":"_operatorIds","type":"uint256[]","internalType":"uint256[]"}],"outputs":[],"stateMutability":"nonpayable"},{"type":"function","name":"getDecryptionShares","inputs":[],"outputs":[{"name":"","type":"string[]","internalType":"string[]"}],"stateMutability":"view"},{"type":"function","name":"getKeys","inputs":[],"outputs":[{"name":"","type":"string[]","internalType":"string[]"}],"stateMutability":"view"},{"type":"function","name":"getMarket","inputs":[],"outputs":[{"name":"","type":"tuple","internalType":"struct Market","components":[{"name":"description","type":"string","internalType":"string"},{"name":"keyRegistrationExpiration","type":"uint256","internalType":"uint256"},{"name":"expiration","type":"uint256","internalType":"uint256"},{"name":"c1","type":"bytes","internalType":"bytes"},{"name":"c2","type":"bytes","internalType":"bytes"},{"name":"publicKeys","type":"string[]","internalType":"string[]"},{"name":"partialDecripts","type":"string[]","internalType":"string[]"}]}],"stateMutability":"view"},{"type":"function","name":"market","inputs":[],"outputs":[{"name":"description","type":"string","internalType":"string"},{"name":"keyRegistrationExpiration","type":"uint256","internalType":"uint256"},{"name":"expiration","type":"uint256","internalType":"uint256"},{"name":"c1","type":"bytes","internalType":"bytes"},{"name":"c2","type":"bytes","internalType":"bytes"}],"stateMutability":"view"},{"type":"function","name":"modifyVote","inputs":[{"name":"newVote","type":"bytes","internalType":"bytes"}],"outputs":[],"stateMutability":"nonpayable"},{"type":"function","name":"submitKey","inputs":[{"name":"publicKey","type":"string","internalType":"string"}],"outputs":[],"stateMutability":"nonpayable"},{"type":"function","name":"submitPartialDecript","inputs":[{"name":"partialDecript","type":"string","internalType":"string"}],"outputs":[],"stateMutability":"nonpayable"}],"bytecode":{"object":"0x6080604052348015600e575f5ffd5b50611ca48061001c5f395ff3fe608060405234801561000f575f5ffd5b506004361061009c575f3560e01c806380f556051161006457806380f5560514610130578063b6ffd4c114610152578063dd1a53871461016e578063e0db72991461018a578063f1be1679146101a65761009c565b80631590f6be146100a057806317b489ff146100be5780632150c518146100da578063502f5bd0146100f8578063753a3acd14610114575b5f5ffd5b6100a86101c4565b6040516100b59190610e2b565b60405180910390f35b6100d860048036038101906100d39190610ef0565b61029a565b005b6100e261047f565b6040516100ef9190610e2b565b60405180910390f35b610112600480360381019061010d9190611083565b610555565b005b61012e60048036038101906101299190611156565b61055e565b005b6101386105e5565b60405161014995949392919061124a565b60405180910390f35b61016c60048036038101906101679190611156565b610799565b005b61018860048036038101906101839190611083565b6107da565b005b6101a4600480360381019061019f91906112b0565b61082e565b005b6101ae61086f565b6040516101bb919061148a565b60405180910390f35b60605f600601805480602002602001604051908101604052809291908181526020015f905b82821015610291578382905f5260205f20018054610206906114d7565b80601f0160208091040260200160405190810160405280929190818152602001828054610232906114d7565b801561027d5780601f106102545761010080835404028352916020019161027d565b820191905f5260205f20905b81548152906001019060200180831161026057829003601f168201915b5050505050815260200190600101906101e9565b50505050905090565b6040518060e0016040528085858080601f0160208091040260200160405190810160405280939291908181526020018383808284375f81840152601f19601f82011690508083019250505050505050815260200183426102fa9190611534565b815260200182844261030c9190611534565b6103169190611534565b815260200160405180602001604052805f815250815260200160405180602001604052805f81525081526020015f67ffffffffffffffff81111561035d5761035c611567565b5b60405190808252806020026020018201604052801561039057816020015b606081526020019060019003908161037b5790505b5081526020015f67ffffffffffffffff8111156103b0576103af611567565b5b6040519080825280602002602001820160405280156103e357816020015b60608152602001906001900390816103ce5790505b508152505f5f820151815f0190816103fb9190611734565b5060208201518160010155604082015181600201556060820151816003019081610425919061185b565b50608082015181600401908161043b919061185b565b5060a0820151816005019080519060200190610458929190610bf3565b5060c0820151816006019080519060200190610475929190610bf3565b5090505050505050565b60605f600501805480602002602001604051908101604052809291908181526020015f905b8282101561054c578382905f5260205f200180546104c1906114d7565b80601f01602080910402602001604051908101604052809291908181526020018280546104ed906114d7565b80156105385780601f1061050f57610100808354040283529160200191610538565b820191905f5260205f20905b81548152906001019060200180831161051b57829003601f168201915b5050505050815260200190600101906104a4565b50505050905090565b50505050505050565b5f6001015442106105a4576040517f08c379a000000000000000000000000000000000000000000000000000000000815260040161059b9061199a565b60405180910390fd5b5f600501828290918060018154018082558091505060019003905f5260205f20015f9091929091929091929091925091826105e09291906119c2565b505050565b5f805f0180546105f4906114d7565b80601f0160208091040260200160405190810160405280929190818152602001828054610620906114d7565b801561066b5780601f106106425761010080835404028352916020019161066b565b820191905f5260205f20905b81548152906001019060200180831161064e57829003601f168201915b50505050509080600101549080600201549080600301805461068c906114d7565b80601f01602080910402602001604051908101604052809291908181526020018280546106b8906114d7565b80156107035780601f106106da57610100808354040283529160200191610703565b820191905f5260205f20905b8154815290600101906020018083116106e657829003601f168201915b505050505090806004018054610718906114d7565b80601f0160208091040260200160405190810160405280929190818152602001828054610744906114d7565b801561078f5780601f106107665761010080835404028352916020019161078f565b820191905f5260205f20905b81548152906001019060200180831161077257829003601f168201915b5050505050905085565b5f600601828290918060018154018082558091505060019003905f5260205f20015f9091929091929091929091925091826107d59291906119c2565b505050565b8680602001906107ea9190611a9b565b8101906107f79190611bf8565b5f6003015f5f6004015f849190509081610811919061185b565b50839190509081610822919061185b565b50505050505050505050565b818181019061083d9190611bf8565b5f6003015f5f6004015f849190509081610857919061185b565b50839190509081610868919061185b565b5050505050565b610877610c4a565b5f6040518060e00160405290815f82018054610892906114d7565b80601f01602080910402602001604051908101604052809291908181526020018280546108be906114d7565b80156109095780601f106108e057610100808354040283529160200191610909565b820191905f5260205f20905b8154815290600101906020018083116108ec57829003601f168201915b505050505081526020016001820154815260200160028201548152602001600382018054610936906114d7565b80601f0160208091040260200160405190810160405280929190818152602001828054610962906114d7565b80156109ad5780601f10610984576101008083540402835291602001916109ad565b820191905f5260205f20905b81548152906001019060200180831161099057829003601f168201915b505050505081526020016004820180546109c6906114d7565b80601f01602080910402602001604051908101604052809291908181526020018280546109f2906114d7565b8015610a3d5780601f10610a1457610100808354040283529160200191610a3d565b820191905f5260205f20905b815481529060010190602001808311610a2057829003601f168201915b5050505050815260200160058201805480602002602001604051908101604052809291908181526020015f905b82821015610b12578382905f5260205f20018054610a87906114d7565b80601f0160208091040260200160405190810160405280929190818152602001828054610ab3906114d7565b8015610afe5780601f10610ad557610100808354040283529160200191610afe565b820191905f5260205f20905b815481529060010190602001808311610ae157829003601f168201915b505050505081526020019060010190610a6a565b50505050815260200160068201805480602002602001604051908101604052809291908181526020015f905b82821015610be6578382905f5260205f20018054610b5b906114d7565b80601f0160208091040260200160405190810160405280929190818152602001828054610b87906114d7565b8015610bd25780601f10610ba957610100808354040283529160200191610bd2565b820191905f5260205f20905b815481529060010190602001808311610bb557829003601f168201915b505050505081526020019060010190610b3e565b5050505081525050905090565b828054828255905f5260205f20908101928215610c39579160200282015b82811115610c38578251829081610c289190611734565b5091602001919060010190610c11565b5b509050610c469190610c85565b5090565b6040518060e00160405280606081526020015f81526020015f8152602001606081526020016060815260200160608152602001606081525090565b5b80821115610ca4575f8181610c9b9190610ca8565b50600101610c86565b5090565b508054610cb4906114d7565b5f825580601f10610cc55750610ce2565b601f0160209004905f5260205f2090810190610ce19190610ce5565b5b50565b5b80821115610cfc575f815f905550600101610ce6565b5090565b5f81519050919050565b5f82825260208201905092915050565b5f819050602082019050919050565b5f81519050919050565b5f82825260208201905092915050565b8281835e5f83830152505050565b5f601f19601f8301169050919050565b5f610d6b82610d29565b610d758185610d33565b9350610d85818560208601610d43565b610d8e81610d51565b840191505092915050565b5f610da48383610d61565b905092915050565b5f602082019050919050565b5f610dc282610d00565b610dcc8185610d0a565b935083602082028501610dde85610d1a565b805f5b85811015610e195784840389528151610dfa8582610d99565b9450610e0583610dac565b925060208a01995050600181019050610de1565b50829750879550505050505092915050565b5f6020820190508181035f830152610e438184610db8565b905092915050565b5f604051905090565b5f5ffd5b5f5ffd5b5f5ffd5b5f5ffd5b5f5ffd5b5f5f83601f840112610e7d57610e7c610e5c565b5b8235905067ffffffffffffffff811115610e9a57610e99610e60565b5b602083019150836001820283011115610eb657610eb5610e64565b5b9250929050565b5f819050919050565b610ecf81610ebd565b8114610ed9575f5ffd5b50565b5f81359050610eea81610ec6565b92915050565b5f5f5f5f60608587031215610f0857610f07610e54565b5b5f85013567ffffffffffffffff811115610f2557610f24610e58565b5b610f3187828801610e68565b94509450506020610f4487828801610edc565b9250506040610f5587828801610edc565b91505092959194509250565b5f5ffd5b5f60808284031215610f7a57610f79610f61565b5b81905092915050565b5f8115159050919050565b610f9781610f83565b8114610fa1575f5ffd5b50565b5f81359050610fb281610f8e565b92915050565b5f5f83601f840112610fcd57610fcc610e5c565b5b8235905067ffffffffffffffff811115610fea57610fe9610e60565b5b60208301915083600182028301111561100657611005610e64565b5b9250929050565b5f8190508260206002028201111561102857611027610e64565b5b92915050565b5f5f83601f84011261104357611042610e5c565b5b8235905067ffffffffffffffff8111156110605761105f610e60565b5b60208301915083602082028301111561107c5761107b610e64565b5b9250929050565b5f5f5f5f5f5f5f60c0888a03121561109e5761109d610e54565b5b5f88013567ffffffffffffffff8111156110bb576110ba610e58565b5b6110c78a828b01610f65565b97505060206110d88a828b01610fa4565b965050604088013567ffffffffffffffff8111156110f9576110f8610e58565b5b6111058a828b01610fb8565b955095505060606111188a828b0161100d565b93505060a088013567ffffffffffffffff81111561113957611138610e58565b5b6111458a828b0161102e565b925092505092959891949750929550565b5f5f6020838503121561116c5761116b610e54565b5b5f83013567ffffffffffffffff81111561118957611188610e58565b5b61119585828601610e68565b92509250509250929050565b5f82825260208201905092915050565b5f6111bb82610d29565b6111c581856111a1565b93506111d5818560208601610d43565b6111de81610d51565b840191505092915050565b6111f281610ebd565b82525050565b5f81519050919050565b5f82825260208201905092915050565b5f61121c826111f8565b6112268185611202565b9350611236818560208601610d43565b61123f81610d51565b840191505092915050565b5f60a0820190508181035f83015261126281886111b1565b905061127160208301876111e9565b61127e60408301866111e9565b81810360608301526112908185611212565b905081810360808301526112a48184611212565b90509695505050505050565b5f5f602083850312156112c6576112c5610e54565b5b5f83013567ffffffffffffffff8111156112e3576112e2610e58565b5b6112ef85828601610fb8565b92509250509250929050565b61130481610ebd565b82525050565b5f82825260208201905092915050565b5f611324826111f8565b61132e818561130a565b935061133e818560208601610d43565b61134781610d51565b840191505092915050565b5f82825260208201905092915050565b5f61136c82610d00565b6113768185611352565b93508360208202850161138885610d1a565b805f5b858110156113c357848403895281516113a48582610d99565b94506113af83610dac565b925060208a0199505060018101905061138b565b50829750879550505050505092915050565b5f60e083015f8301518482035f8601526113ef8282610d61565b915050602083015161140460208601826112fb565b50604083015161141760408601826112fb565b506060830151848203606086015261142f828261131a565b91505060808301518482036080860152611449828261131a565b91505060a083015184820360a08601526114638282611362565b91505060c083015184820360c086015261147d8282611362565b9150508091505092915050565b5f6020820190508181035f8301526114a281846113d5565b905092915050565b7f4e487b71000000000000000000000000000000000000000000000000000000005f52602260045260245ffd5b5f60028204905060018216806114ee57607f821691505b602082108103611501576115006114aa565b5b50919050565b7f4e487b71000000000000000000000000000000000000000000000000000000005f52601160045260245ffd5b5f61153e82610ebd565b915061154983610ebd565b925082820190508082111561156157611560611507565b5b92915050565b7f4e487b71000000000000000000000000000000000000000000000000000000005f52604160045260245ffd5b5f819050815f5260205f209050919050565b5f6020601f8301049050919050565b5f82821b905092915050565b5f600883026115f07fffffffffffffffffffffffffffffffffffffffffffffffffffffffffffffffff826115b5565b6115fa86836115b5565b95508019841693508086168417925050509392505050565b5f819050919050565b5f61163561163061162b84610ebd565b611612565b610ebd565b9050919050565b5f819050919050565b61164e8361161b565b61166261165a8261163c565b8484546115c1565b825550505050565b5f5f905090565b61167961166a565b611684818484611645565b505050565b5b818110156116a75761169c5f82611671565b60018101905061168a565b5050565b601f8211156116ec576116bd81611594565b6116c6846115a6565b810160208510156116d5578190505b6116e96116e1856115a6565b830182611689565b50505b505050565b5f82821c905092915050565b5f61170c5f19846008026116f1565b1980831691505092915050565b5f61172483836116fd565b9150826002028217905092915050565b61173d82610d29565b67ffffffffffffffff81111561175657611755611567565b5b61176082546114d7565b61176b8282856116ab565b5f60209050601f83116001811461179c575f841561178a578287015190505b6117948582611719565b8655506117fb565b601f1984166117aa86611594565b5f5b828110156117d1578489015182556001820191506020850194506020810190506117ac565b868310156117ee57848901516117ea601f8916826116fd565b8355505b6001600288020188555050505b505050505050565b5f819050815f5260205f209050919050565b601f8211156118565761182781611803565b611830846115a6565b8101602085101561183f578190505b61185361184b856115a6565b830182611689565b50505b505050565b611864826111f8565b67ffffffffffffffff81111561187d5761187c611567565b5b61188782546114d7565b611892828285611815565b5f60209050601f8311600181146118c3575f84156118b1578287015190505b6118bb8582611719565b865550611922565b601f1984166118d186611803565b5f5b828110156118f8578489015182556001820191506020850194506020810190506118d3565b868310156119155784890151611911601f8916826116fd565b8355505b6001600288020188555050505b505050505050565b7f4b657920726567697374726174696f6e20706572696f642068617320657870695f8201527f7265640000000000000000000000000000000000000000000000000000000000602082015250565b5f6119846023836111a1565b915061198f8261192a565b604082019050919050565b5f6020820190508181035f8301526119b181611978565b9050919050565b5f82905092915050565b6119cc83836119b8565b67ffffffffffffffff8111156119e5576119e4611567565b5b6119ef82546114d7565b6119fa8282856116ab565b5f601f831160018114611a27575f8415611a15578287013590505b611a1f8582611719565b865550611a86565b601f198416611a3586611594565b5f5b82811015611a5c57848901358255600182019150602085019450602081019050611a37565b86831015611a795784890135611a75601f8916826116fd565b8355505b6001600288020188555050505b50505050505050565b5f5ffd5b5f5ffd5b5f5ffd5b5f5f83356001602003843603038112611ab757611ab6611a8f565b5b80840192508235915067ffffffffffffffff821115611ad957611ad8611a93565b5b602083019250600182023603831315611af557611af4611a97565b5b509250929050565b5f5ffd5b611b0a82610d51565b810181811067ffffffffffffffff82111715611b2957611b28611567565b5b80604052505050565b5f611b3b610e4b565b9050611b478282611b01565b919050565b5f67ffffffffffffffff821115611b6657611b65611567565b5b611b6f82610d51565b9050602081019050919050565b828183375f83830152505050565b5f611b9c611b9784611b4c565b611b32565b905082815260208101848484011115611bb857611bb7611afd565b5b611bc3848285611b7c565b509392505050565b5f82601f830112611bdf57611bde610e5c565b5b8135611bef848260208601611b8a565b91505092915050565b5f5f60408385031215611c0e57611c0d610e54565b5b5f83013567ffffffffffffffff811115611c2b57611c2a610e58565b5b611c3785828601611bcb565b925050602083013567ffffffffffffffff811115611c5857611c57610e58565b5b611c6485828601611bcb565b915050925092905056fea264697066735822122018fd1cace44df44a5e708f1dd260fd90d764c512713eb09ad2a108d03705068e64736f6c634300081c0033","linkReferences":{}},"methodIdentifiers":{"MakeMarket(string,uint256,uint256)":"17b489ff","afterTaskSubmission((string,bytes,address,uint16),bool,bytes,uint256[2],uint256[])":"dd1a5387","beforeTaskSubmission((string,bytes,address,uint16),bool,bytes,uint256[2],uint256[])":"502f5bd0","getDecryptionShares()":"1590f6be","getKeys()":"2150c518","getMarket()":"f1be1679","market()":"80f55605","modifyVote(bytes)":"e0db7299","submitKey(string)":"753a3acd","submitPartialDecript(string)":"b6ffd4c1"},"id":17}