{"abi":[{"type":"function","name":"afterTaskSubmission","inputs":[{"name":"_taskInfo","type":"tuple","internalType":"struct IAttestationCenter.TaskInfo","components":[{"name":"proofOfTask","type":"string","internalType":"string"},{"name":"data","type":"bytes","internalType":"bytes"},{"name":"taskPerformer","type":"address","internalType":"address"},{"name":"taskDefinitionId","type":"uint16","internalType":"uint16"}]},{"name":"_isApproved","type":"bool","internalType":"bool"},{"name":"_tpSignature","type":"bytes","internalType":"bytes"},{"name":"_taSignature","type":"uint256[2]","internalType":"uint256[2]"},{"name":"_operatorIds","type":"uint256[]","internalType":"uint256[]"}],"outputs":[],"stateMutability":"nonpayable"},{"type":"function","name":"beforeTaskSubmission","inputs":[{"name":"_taskInfo","type":"tuple","internalType":"struct IAttestationCenter.TaskInfo","components":[{"name":"proofOfTask","type":"string","internalType":"string"},{"name":"data","type":"bytes","internalType":"bytes"},{"name":"taskPerformer","type":"address","internalType":"address"},{"name":"taskDefinitionId","type":"uint16","internalType":"uint16"}]},{"name":"_isApproved","type":"bool","internalType":"bool"},{"name":"_tpSignature","type":"bytes","internalType":"bytes"},{"name":"_taSignature","type":"uint256[2]","internalType":"uint256[2]"},{"name":"_operatorIds","type":"uint256[]","internalType":"uint256[]"}],"outputs":[],"stateMutability":"nonpayable"},{"type":"function","name":"market","inputs":[],"outputs":[{"name":"description","type":"string","internalType":"string"},{"name":"keyRegistrationExpiration","type":"uint256","internalType":"uint256"},{"name":"expiration","type":"uint256","internalType":"uint256"},{"name":"currentVote","type":"bytes","internalType":"bytes"}],"stateMutability":"view"}],"bytecode":{"object":"0x6080604052348015600e575f5ffd5b506108d18061001c5f395ff3fe608060405234801561000f575f5ffd5b506004361061003f575f3560e01c8063502f5bd01461004357806380f556051461005f578063dd1a538714610080575b5f5ffd5b61005d6004803603810190610058919061032e565b61009c565b005b6100676100a5565b60405161007794939291906104db565b60405180910390f35b61009a6004803603810190610095919061032e565b6101cd565b005b50505050505050565b5f805f0180546100b490610559565b80601f01602080910402602001604051908101604052809291908181526020018280546100e090610559565b801561012b5780601f106101025761010080835404028352916020019161012b565b820191905f5260205f20905b81548152906001019060200180831161010e57829003601f168201915b50505050509080600101549080600201549080600301805461014c90610559565b80601f016020809104026020016040519081016040528092919081815260200182805461017890610559565b80156101c35780601f1061019a576101008083540402835291602001916101c3565b820191905f5260205f20905b8154815290600101906020018083116101a657829003601f168201915b5050505050905084565b8680602001906101dd9190610595565b5f60030191826101ee9291906107ce565b5050505050505050565b5f5ffd5b5f5ffd5b5f5ffd5b5f6080828403121561021957610218610200565b5b81905092915050565b5f8115159050919050565b61023681610222565b8114610240575f5ffd5b50565b5f813590506102518161022d565b92915050565b5f5ffd5b5f5ffd5b5f5ffd5b5f5f83601f84011261027857610277610257565b5b8235905067ffffffffffffffff8111156102955761029461025b565b5b6020830191508360018202830111156102b1576102b061025f565b5b9250929050565b5f819050826020600202820111156102d3576102d261025f565b5b92915050565b5f5f83601f8401126102ee576102ed610257565b5b8235905067ffffffffffffffff81111561030b5761030a61025b565b5b6020830191508360208202830111156103275761032661025f565b5b9250929050565b5f5f5f5f5f5f5f60c0888a031215610349576103486101f8565b5b5f88013567ffffffffffffffff811115610366576103656101fc565b5b6103728a828b01610204565b97505060206103838a828b01610243565b965050604088013567ffffffffffffffff8111156103a4576103a36101fc565b5b6103b08a828b01610263565b955095505060606103c38a828b016102b8565b93505060a088013567ffffffffffffffff8111156103e4576103e36101fc565b5b6103f08a828b016102d9565b925092505092959891949750929550565b5f81519050919050565b5f82825260208201905092915050565b8281835e5f83830152505050565b5f601f19601f8301169050919050565b5f61044382610401565b61044d818561040b565b935061045d81856020860161041b565b61046681610429565b840191505092915050565b5f819050919050565b61048381610471565b82525050565b5f81519050919050565b5f82825260208201905092915050565b5f6104ad82610489565b6104b78185610493565b93506104c781856020860161041b565b6104d081610429565b840191505092915050565b5f6080820190508181035f8301526104f38187610439565b9050610502602083018661047a565b61050f604083018561047a565b818103606083015261052181846104a3565b905095945050505050565b7f4e487b71000000000000000000000000000000000000000000000000000000005f52602260045260245ffd5b5f600282049050600182168061057057607f821691505b6020821081036105835761058261052c565b5b50919050565b5f5ffd5b5f5ffd5b5f5ffd5b5f5f833560016020038436030381126105b1576105b0610589565b5b80840192508235915067ffffffffffffffff8211156105d3576105d261058d565b5b6020830192506001820236038313156105ef576105ee610591565b5b509250929050565b5f82905092915050565b7f4e487b71000000000000000000000000000000000000000000000000000000005f52604160045260245ffd5b5f819050815f5260205f209050919050565b5f6020601f8301049050919050565b5f82821b905092915050565b5f6008830261068a7fffffffffffffffffffffffffffffffffffffffffffffffffffffffffffffffff8261064f565b610694868361064f565b95508019841693508086168417925050509392505050565b5f819050919050565b5f6106cf6106ca6106c584610471565b6106ac565b610471565b9050919050565b5f819050919050565b6106e8836106b5565b6106fc6106f4826106d6565b84845461065b565b825550505050565b5f5f905090565b610713610704565b61071e8184846106df565b505050565b5b81811015610741576107365f8261070b565b600181019050610724565b5050565b601f821115610786576107578161062e565b61076084610640565b8101602085101561076f578190505b61078361077b85610640565b830182610723565b50505b505050565b5f82821c905092915050565b5f6107a65f198460080261078b565b1980831691505092915050565b5f6107be8383610797565b9150826002028217905092915050565b6107d883836105f7565b67ffffffffffffffff8111156107f1576107f0610601565b5b6107fb8254610559565b610806828285610745565b5f601f831160018114610833575f8415610821578287013590505b61082b85826107b3565b865550610892565b601f1984166108418661062e565b5f5b8281101561086857848901358255600182019150602085019450602081019050610843565b868310156108855784890135610881601f891682610797565b8355505b6001600288020188555050505b5050505050505056fea2646970667358221220211fa97a3d3003ff993e8b85b80443b5a5b477bf46ecd1b808a0c7db514ff9e264736f6c634300081c0033","linkReferences":{}},"methodIdentifiers":{"afterTaskSubmission((string,bytes,address,uint16),bool,bytes,uint256[2],uint256[])":"dd1a5387","beforeTaskSubmission((string,bytes,address,uint16),bool,bytes,uint256[2],uint256[])":"502f5bd0","market()":"80f55605"},"id":2}